{
  "_format": "hh-sol-artifact-1",
  "contractName": "ETHTransferTrigger",
  "sourceName": "contracts/eth_transfer_trigger.sol",
  "abi": [
    {
      "inputs": [
        {
          "internalType": "address",
          "name": "_scheduledMessage",
          "type": "address"
        }
      ],
      "stateMutability": "nonpayable",
      "type": "constructor"
    },
    {
      "inputs": [],
      "name": "scheduledMessage",
      "outputs": [
        {
          "internalType": "contract IScheduledMessage",
          "name": "",
          "type": "address"
        }
      ],
      "stateMutability": "view",
      "type": "function"
    },
    {
      "inputs": [
        {
          "internalType": "address payable",
          "name": "recipient",
          "type": "address"
        }
      ],
      "name": "transferAndTrigger",
      "outputs": [],
      "stateMutability": "payable",
      "type": "function"
    }
  ],
  "bytecode": "0x608060405234801561001057600080fd5b506040516104303803806104308339818101604052810190610032919061008d565b806000806101000a81548173ffffffffffffffffffffffffffffffffffffffff021916908373ffffffffffffffffffffffffffffffffffffffff160217905550506100ff565b600081519050610087816100e8565b92915050565b60006020828403121561009f57600080fd5b60006100ad84828501610078565b91505092915050565b60006100c1826100c8565b9050919050565b600073ffffffffffffffffffffffffffffffffffffffff82169050919050565b6100f1816100b6565b81146100fc57600080fd5b50565b6103228061010e6000396000f3fe6080604052600436106100295760003560e01c806356c07c9b1461002e578063e8d32f7e1461004a575b600080fd5b610048600480360381019061004391906101bb565b610075565b005b34801561005657600080fd5b5061005f610182565b60405161006c9190610233565b60405180910390f35b600034116100b8576040517f08c379a00000000000000000000000000000000000000000000000000000000081526004016100af9061024e565b60405180910390fd5b8073ffffffffffffffffffffffffffffffffffffffff166108fc349081150290604051600060405180830381858888f193505050501580156100fe573d6000803e3d6000fd5b5060008054906101000a900473ffffffffffffffffffffffffffffffffffffffff1673ffffffffffffffffffffffffffffffffffffffff16630c96c4ea6040518163ffffffff1660e01b8152600401600060405180830381600087803b15801561016757600080fd5b505af115801561017b573d6000803e3d6000fd5b5050505050565b60008054906101000a900473ffffffffffffffffffffffffffffffffffffffff1681565b6000813590506101b5816102d5565b92915050565b6000602082840312156101cd57600080fd5b60006101db848285016101a6565b91505092915050565b6101ed816102b1565b82525050565b6000610200600d8361026e565b91507f4d7573742073656e6420455448000000000000000000000000000000000000006000830152602082019050919050565b600060208201905061024860008301846101e4565b92915050565b60006020820190508181036000830152610267816101f3565b9050919050565b600082825260208201905092915050565b600061028a82610291565b9050919050565b600073ffffffffffffffffffffffffffffffffffffffff82169050919050565b60006102bc826102c3565b9050919050565b60006102ce82610291565b9050919050565b6102de8161027f565b81146102e957600080fd5b5056fea2646970667358221220f620f9d8e1417bf862ab06ccdb1b1773a9346549a765b997363a79b80568928464736f6c63430008000033",
  "linkReferences": {},
  "deployedLinkReferences": {}
}