{
  "_format": "hh-sol-artifact-1",
  "contractName": "ScheduledMessage",
  "sourceName": "contracts/scheduled_message.sol",
  "abi": [
    {
      "inputs": [],
      "stateMutability": "nonpayable",
      "type": "constructor"
    },
    {
      "anonymous": false,
      "inputs": [
        {
          "indexed": false,
          "internalType": "uint256",
          "name": "blockNumber",
          "type": "uint256"
        },
        {
          "indexed": false,
          "internalType": "string",
          "name": "message",
          "type": "string"
        }
      ],
      "name": "MessageReleased",
      "type": "event"
    },
    {
      "inputs": [],
      "name": "TEASER",
      "outputs": [
        {
          "internalType": "string",
          "name": "",
          "type": "string"
        }
      ],
      "stateMutability": "view",
      "type": "function"
    },
    {
      "inputs": [],
      "name": "currentMessageIndex",
      "outputs": [
        {
          "internalType": "uint256",
          "name": "",
          "type": "uint256"
        }
      ],
      "stateMutability": "view",
      "type": "function"
    },
    {
      "inputs": [],
      "name": "getScheduledCount",
      "outputs": [
        {
          "internalType": "uint256",
          "name": "",
          "type": "uint256"
        }
      ],
      "stateMutability": "view",
      "type": "function"
    },
    {
      "inputs": [],
      "name": "lastTriggeredBlock",
      "outputs": [
        {
          "internalType": "uint256",
          "name": "",
          "type": "uint256"
        }
      ],
      "stateMutability": "view",
      "type": "function"
    },
    {
      "inputs": [],
      "name": "owner",
      "outputs": [
        {
          "internalType": "address",
          "name": "",
          "type": "address"
        }
      ],
      "stateMutability": "view",
      "type": "function"
    },
    {
      "inputs": [
        {
          "internalType": "string",
          "name": "fullMessage",
          "type": "string"
        },
        {
          "internalType": "uint256",
          "name": "parts",
          "type": "uint256"
        },
        {
          "internalType": "string",
          "name": "hint",
          "type": "string"
        }
      ],
      "name": "scheduleMessage",
      "outputs": [],
      "stateMutability": "nonpayable",
      "type": "function"
    },
    {
      "inputs": [
        {
          "internalType": "uint256",
          "name": "",
          "type": "uint256"
        }
      ],
      "name": "scheduledMessages",
      "outputs": [
        {
          "internalType": "string",
          "name": "",
          "type": "string"
        }
      ],
      "stateMutability": "view",
      "type": "function"
    },
    {
      "inputs": [],
      "name": "triggerRelease",
      "outputs": [],
      "stateMutability": "nonpayable",
      "type": "function"
    }
  ],
  "bytecode": "0x608060405234801561001057600080fd5b50336000806101000a81548173ffffffffffffffffffffffffffffffffffffffff021916908373ffffffffffffffffffffffffffffffffffffffff16021790555060006003819055506000600281905550610fd9806100706000396000f3fe608060405234801561001057600080fd5b50600436106100885760003560e01c80638f3a167c1161005b5780638f3a167c146100ef5780639a3716921461010d578063b8faf67c1461013d578063c1a6cb141461015b57610088565b80630c96c4ea1461008d5780632b36f21d1461009757806357bd9a7a146100b35780638da5cb5b146100d1575b600080fd5b610095610179565b005b6100b160048036038101906100ac9190610923565b6102e2565b005b6100bb610679565b6040516100c89190610bcb565b60405180910390f35b6100d961067f565b6040516100e69190610b2e565b60405180910390f35b6100f76106a3565b6040516101049190610bcb565b60405180910390f35b610127600480360381019061012291906109a2565b6106a9565b6040516101349190610b49565b60405180910390f35b610145610755565b6040516101529190610b49565b60405180910390f35b610163610771565b6040516101709190610bcb565b60405180910390f35b6003544311156102e0574360038190555060606001805490506002541015610289576001600254815481106101d7577f4e487b7100000000000000000000000000000000000000000000000000000000600052603260045260246000fd5b9060005260206000200180546101ec90610df2565b80601f016020809104026020016040519081016040528092919081815260200182805461021890610df2565b80156102655780601f1061023a57610100808354040283529160200191610265565b820191906000526020600020905b81548152906001019060200180831161024857829003601f168201915b505050505090506002600081548092919061027f90610e24565b91905055506102a5565b604051806060016040528060218152602001610f836021913990505b7f5aa8336833d18e5c16f62ace899f111deb5daa5bd871ca97dc60224679d18e5543826040516102d6929190610be6565b60405180910390a1505b565b60008054906101000a900473ffffffffffffffffffffffffffffffffffffffff1673ffffffffffffffffffffffffffffffffffffffff163373ffffffffffffffffffffffffffffffffffffffff1614610370576040517f08c379a000000000000000000000000000000000000000000000000000000000815260040161036790610b6b565b60405180910390fd5b600082116103b3576040517f08c379a00000000000000000000000000000000000000000000000000000000081526004016103aa90610bab565b60405180910390fd5b600083905060008151905080841115610401576040517f08c379a00000000000000000000000000000000000000000000000000000000081526004016103f890610b8b565b60405180910390fd5b6001600061040f919061077e565b6000600281905550600084826104259190610ce9565b9050600085836104359190610e6d565b905060005b86811015610633576000828210610452576000610455565b60015b60ff169050600081856104689190610c93565b90506000848410610479578461047b565b835b86856104879190610d1a565b6104919190610c93565b905060008267ffffffffffffffff8111156104d5577f4e487b7100000000000000000000000000000000000000000000000000000000600052604160045260246000fd5b6040519080825280601f01601f1916602001820160405280156105075781602001600182028036833780820191505090505b50905060005b838110156105df578981846105229190610c93565b81518110610559577f4e487b7100000000000000000000000000000000000000000000000000000000600052603260045260246000fd5b602001015160f81c60f81b82828151811061059d577f4e487b7100000000000000000000000000000000000000000000000000000000600052603260045260246000fd5b60200101907effffffffffffffffffffffffffffffffffffffffffffffffffffffffffffff1916908160001a90535080806105d790610e24565b91505061050d565b5060018190806001815401808255809150506001900390600052602060002001600090919091909150908051906020019061061b92919061079f565b5050505050808061062b90610e24565b91505061043a565b5060018590806001815401808255809150506001900390600052602060002001600090919091909150908051906020019061066f92919061079f565b5050505050505050565b60025481565b60008054906101000a900473ffffffffffffffffffffffffffffffffffffffff1681565b60035481565b600181815481106106b957600080fd5b9060005260206000200160009150905080546106d490610df2565b80601f016020809104026020016040519081016040528092919081815260200182805461070090610df2565b801561074d5780601f106107225761010080835404028352916020019161074d565b820191906000526020600020905b81548152906001019060200180831161073057829003601f168201915b505050505081565b604051806060016040528060218152602001610f836021913981565b6000600180549050905090565b508054600082559060005260206000209081019061079c9190610825565b50565b8280546107ab90610df2565b90600052602060002090601f0160209004810192826107cd5760008555610814565b82601f106107e657805160ff1916838001178555610814565b82800160010185558215610814579182015b828111156108135782518255916020019190600101906107f8565b5b5090506108219190610849565b5090565b5b80821115610845576000818161083c9190610866565b50600101610826565b5090565b5b8082111561086257600081600090555060010161084a565b5090565b50805461087290610df2565b6000825580601f1061088457506108a3565b601f0160209004906000526020600020908101906108a29190610849565b5b50565b60006108b96108b484610c47565b610c16565b9050828152602081018484840111156108d157600080fd5b6108dc848285610db0565b509392505050565b600082601f8301126108f557600080fd5b81356109058482602086016108a6565b91505092915050565b60008135905061091d81610f6b565b92915050565b60008060006060848603121561093857600080fd5b600084013567ffffffffffffffff81111561095257600080fd5b61095e868287016108e4565b935050602061096f8682870161090e565b925050604084013567ffffffffffffffff81111561098c57600080fd5b610998868287016108e4565b9150509250925092565b6000602082840312156109b457600080fd5b60006109c28482850161090e565b91505092915050565b6109d481610d74565b82525050565b60006109e582610c77565b6109ef8185610c82565b93506109ff818560208601610dbf565b610a0881610f5a565b840191505092915050565b6000610a20602183610c82565b91507f4f6e6c79206f776e65722063616e2063616c6c20746869732066756e6374696f60008301527f6e000000000000000000000000000000000000000000000000000000000000006020830152604082019050919050565b6000610a86602283610c82565b91507f50617274732063616e6e6f7420657863656564206d657373616765206c656e6760008301527f74680000000000000000000000000000000000000000000000000000000000006020830152604082019050919050565b6000610aec601183610c82565b91507f5061727473206d757374206265203e20300000000000000000000000000000006000830152602082019050919050565b610b2881610da6565b82525050565b6000602082019050610b4360008301846109cb565b92915050565b60006020820190508181036000830152610b6381846109da565b905092915050565b60006020820190508181036000830152610b8481610a13565b9050919050565b60006020820190508181036000830152610ba481610a79565b9050919050565b60006020820190508181036000830152610bc481610adf565b9050919050565b6000602082019050610be06000830184610b1f565b92915050565b6000604082019050610bfb6000830185610b1f565b8181036020830152610c0d81846109da565b90509392505050565b6000604051905081810181811067ffffffffffffffff82111715610c3d57610c3c610f2b565b5b8060405250919050565b600067ffffffffffffffff821115610c6257610c61610f2b565b5b601f19601f8301169050602081019050919050565b600081519050919050565b600082825260208201905092915050565b6000610c9e82610da6565b9150610ca983610da6565b9250827fffffffffffffffffffffffffffffffffffffffffffffffffffffffffffffffff03821115610cde57610cdd610e9e565b5b828201905092915050565b6000610cf482610da6565b9150610cff83610da6565b925082610d0f57610d0e610ecd565b5b828204905092915050565b6000610d2582610da6565b9150610d3083610da6565b9250817fffffffffffffffffffffffffffffffffffffffffffffffffffffffffffffffff0483118215151615610d6957610d68610e9e565b5b828202905092915050565b6000610d7f82610d86565b9050919050565b600073ffffffffffffffffffffffffffffffffffffffff82169050919050565b6000819050919050565b82818337600083830152505050565b60005b83811015610ddd578082015181840152602081019050610dc2565b83811115610dec576000848401525b50505050565b60006002820490506001821680610e0a57607f821691505b60208210811415610e1e57610e1d610efc565b5b50919050565b6000610e2f82610da6565b91507fffffffffffffffffffffffffffffffffffffffffffffffffffffffffffffffff821415610e6257610e61610e9e565b5b600182019050919050565b6000610e7882610da6565b9150610e8383610da6565b925082610e9357610e92610ecd565b5b828206905092915050565b7f4e487b7100000000000000000000000000000000000000000000000000000000600052601160045260246000fd5b7f4e487b7100000000000000000000000000000000000000000000000000000000600052601260045260246000fd5b7f4e487b7100000000000000000000000000000000000000000000000000000000600052602260045260246000fd5b7f4e487b7100000000000000000000000000000000000000000000000000000000600052604160045260246000fd5b6000601f19601f8301169050919050565b610f7481610da6565b8114610f7f57600080fd5b5056fe5374616e6420627920666f72206675727468657220696e737472756374696f6e73a2646970667358221220c1ac1cb15840557690b6265567c8dec5333c4b1ea7d79a34ac1c9ca3c1ec9d4664736f6c63430008000033",
  "linkReferences": {},
  "deployedLinkReferences": {}
}